:100000000C94B3000C94D4000C94D4000C94D40041
:100010000C94D4000C94D4000C94D4000C94D40010
:100020000C94D4000C94D4000C94D4000C94D40000
:100030000C94D4000C94D4000C94D4000C94D400F0
:100040000C94D4000C94D4000C94D4000C94D400E0
:100050000C94D4000C94D4000C94D4000C94D400D0
:100060000C94D4000C94D4000C94D4000C94D400C0
:100070000C94D4000C94D4000C94D4000C94D400B0
:100080000C94D4000C94D4000C94D4000C94D400A0
:100090000C94D4000C94D4000C94D4000C94D40090
:1000A0000C94D4000C94D4000C94D4000C94D40080
:1000B0000C94D4000C94D4000C94D4000C94D40070
:1000C0000C94D4000C94D4000C94D4000C94D40060
:1000D0000C94D4000C94D4000C94D4000C94D40050
:1000E0000C94D40007634236B79BD8A71A396856D8
:1000F00018AEBAAB558C1D3CB7CC5763BD6DEDFD4A
:10010000753EF6177231BF000000803F0800000006
:10011000BE922449123EABAAAA2ABECDCCCC4C3EFC
:1001200000000080BEABAAAAAA3E00000000BF00EB
:100130000000803F0000000000084178D3BB4387E7
:10014000D1133D190E3CC3BD4282AD2B3E68EC82FB
:1001500076BED98FE1A93E4C80EFFFBE01C4FF7F80
:100160003F000000000011241FBECFEFD1E2DEBF30
:10017000CDBF00E00CBF12E0A0E0B2E0E4E7F3E1A5
:1001800000E00BBF02C007900D92A030B107D9F775
:1001900012E0A0E0B2E001C01D92A632B107E1F783
:1001A0000E944C060C94B8090C94000086E69EE070
:1001B0000197F1F700004098419880E388B9429A8E
:1001C000EFEFF7E43197F1F700C000004298E6E660
:1001D000FEE03197F1F700004098419888B9429AC3
:1001E000EFEFF7E43197F1F700C000004298E6E640
:1001F000FEE03197F1F700004098419888B9429AA3
:100200008FEF97E40197F1F700C000004298E6E60F
:10021000FEE03197F1F700004098419880E288B9FC
:10022000429A8FEF97E40197F1F700C000004298DF
:10023000089598B19F7098B998B1282F207F922B7C
:1002400098B940984198429AEFEFF7E43197F1F767
:1002500000C00000429898B19F7098B998B18295FB
:10026000807F892B88B940984198429A8FEF97E414
:100270000197F1F700C00000429808950E94D6004F
:1002800086E69EE00197F1F7000088E20E941901DE
:1002900081E00E94190186E00E9419018EE00E940F
:1002A000190180E80E941901089598B19F7098B9CA
:1002B00098B1282F207F922B98B9409A4198429A62
:1002C000EFEFF7E43197F1F700C00000429898B1E2
:1002D0009F7098B998B18295807F892B88B9409A90
:1002E0004198429A8FEF97E40197F1F700C0000020
:1002F0004298089580E80E9419010895CF93DF93F2
:10030000EC018881882331F021960E945501899162
:100310008823D9F7DF91CF910895823079F0833027
:1003200018F48130C9F405C0833069F08430A1F439
:100330000FC0862F81580E9419010895862F81547D
:100340000E9419010895862F8D560E941901089563
:10035000862F8D520E94190108950F931F93CF93FA
:10036000DF938A01E901882311F0662319F40E94C2
:100370007A0102C00E948D01C530D10571F4C80117
:1003800060E177E20E94A409CB01C09690931B0222
:1003900080931A020E94550103C0C430D105B9F4FC
:1003A000C80168EE73E00E94A409CB017093250296
:1003B000609324026AE070E00E94A409C0969093C2
:1003C0001D0280931C020E94550181E001C080E063
:1003D000C330D10511F08130B1F4C80164E670E09A
:1003E0000E94A409CB0170932502609324026AE065
:1003F00070E00E94A409C09690931F0280931E0291
:100400000E94550181E0C230D10511F08130B1F474
:100410002AE030E0C801B9010E94A409CB01709321
:10042000250260932402B9010E94A409C09690930A
:100430002102809320020E94550181E0C130D10544
:1004400011F0813061F4C8016AE070E00E94A409F3
:10045000C09690932302809322020E945501C630D9
:10046000D1051CF085E40E945501DF91CF911F91C9
:100470000F9108953B9A4398089586B1886088B992
:10048000089586B1877F88B9089587B1876F87B946
:1004900088B1807888B9089510BA11BA109207010E
:1004A00010920801089581B18F6081B982B1807F77
:1004B00082B9EAE0F1E0808188618083EBE0F1E0DD
:1004C00080818861808308950E9445020E944C02C9
:1004D0000E9453020E943A020895E1E2F1E0108284
:1004E0008FEF8093250191E09093240110922901D0
:1004F0008093280110922B0180932A0110922D01E4
:1005000080932C0189EA809320018BE080830895F9
:100510008093280160932A01089592B1907F8F7093
:10052000982B92B9089586E00E948D02089589E083
:100530000E948D02089585E00E948D0208958AE050
:100540000E948D02089584E00E948D02089582E049
:100550000E948D02089581E00E948D02089588E036
:100560000E948D02089580E00E948D020895EAE7BE
:10057000F0E0108210927B0080E280937C0080E8A3
:1005800080BF86E880830895883018F098E09093C3
:100590007B008770806280937C00EAE7F0E08081D6
:1005A00080648083808184FFFDCF80917900EAE7B9
:1005B000F0E090819061908310927B000895CF933A
:1005C000DF93D82FC62F842F0E94C402482F809318
:1005D00019028D2F6C2F50E023E030E00E94AD0116
:1005E000DF91CF9108950F931F93682F70E080E003
:1005F00090E00E94E9062FEE39EC43E95FE30E94A8
:10060000DA07B62FA72F382F292F60E070E080E897
:100610009FE3422F0B2F1A2F232F342FA90198016C
:100620000E9450062AE939EF4EE255E40E9477070E
:1006300020E030E040E251E40E9477070E94B806D3
:10064000882777FD8095982F0E94EB060E94B806B8
:10065000862F972F23E08132920710F080E293E0FB
:100660001F910F910895F8940E9464020E94B702AE
:100670000E946D02789408958AEF6AEF0E948802C2
:100680000E94A7028FEF9FE1A7E381509040A04016
:10069000E1F700C000000E94930286E696EEA9E012
:1006A00081509040A040E1F70E94A30280EE9AE3BF
:1006B000A1E381509040A040E1F700C000C00E943B
:1006C000B3028BE00E94C402809318020E94F302DE
:1006D0009093150280931402A1E0853F9A0720F4BD
:1006E0008739910540F410C08AEF6AEF0E948802B2
:1006F0000E94930208950E949302809114029091A7
:10070000150287399105B8F70E943C0308950E94AD
:1007100093028FEF9FEFACE281509040A040E1F751
:1007200000C000000E94A3028FEF9FEFACE2815057
:100730009040A040E1F700C000000E9493028FEFBC
:100740009FE7ADE081509040A040E1F700C000007D
:100750000E94A7028FEF9FEFACE281509040A04033
:10076000E1F700C000000E94930208950E94B302C6
:100770008FEF9FE80197F1F700C000008BE00E9427
:10078000C402809318020E94F30290931302809394
:1007900012028FEF9FE7A6E181509040A040E1F761
:1007A00000C000008BE00E94C402809318020E94E7
:1007B000F302909311028093100220911202309163
:1007C0001302821B930B880F991F90930F02809343
:1007D0000E02089583E00E94C4028093020282E028
:1007E0000E94C4028093010281E00E94C4028093AF
:1007F00000021092030280910102803148F481E0EE
:10080000809303020E94930284E664E60E948802B9
:1008100080910202813168F080910302882349F4BB
:1008200081E0809303020E94930282E862E30E94C7
:10083000880280910002813168F080910302882350
:1008400049F481E0809303020E94930282E362E80C
:100850000E94880280910102813170F08091020231
:10086000813150F080910002813130F00E9493027A
:1008700080E060E00E948802089586E966E90E94AF
:1008800088020E94A30285EF98ECA0E1815090407D
:10089000A040E1F700C00E94A70288EB9EEBA4E114
:1008A00081509040A040E1F70E94B3020E9497025D
:1008B00080E79DEFA2E181509040A040E1F7000069
:1008C0000E94B302AFEFBFE81197F1F700C000003C
:1008D000089584E664E60E9488020E94970282E3FB
:1008E00093E7ABE181509040A040E1F700C000C029
:1008F0000E94A7028CEC9CE0A4E981509040A040AB
:10090000E1F700C00E94970289E999E1A0E58150D2
:100910009040A040E1F700000E94B30208950E94B9
:10092000970288E00E94C4028937C8F30E94AB0294
:100930008FEF9FEFACE281509040A040E1F700C004
:1009400000000E9497028FEF9FEBA1E28150904040
:10095000A040E1F700C000000E94B3028BE00E94BB
:10096000C402809318020E94F302909315028093B0
:100970001402A2E08C3B9A0788F78FEF9FEFA6E85E
:1009800081509040A040E1F700C000008BE00E9441
:10099000C402809318020E94F30290931502809380
:1009A0001402A3E086319A0740F30E9493028FEF6E
:1009B0009FEBA1E281509040A040E1F700C0000011
:1009C0000E94A7028FEF9FEFACE281509040A040C1
:1009D000E1F700C000000E94930281E090E00895DA
:1009E0008BE00E94C402809318020E94F30290934D
:1009F0001502809314028739910518F00E94EA03CA
:100A0000EFCF0E943C038FEF9FEFACE2815090400C
:100A1000A040E1F700C0000084E00E94C4028D38CD
:100A2000D8F38AEF6AEF0E9488020E94870381E070
:100A300090E00895CF93DF93C4E6D0E086E00E9473
:100A4000C4028A3508F0ECC084E664E60E9488029D
:100A50000E94690484E00E94C4028A3618F00E9451
:100A60003D04F8CF84E00E94C402809316022097D0
:100A700009F461C021970E9493028FEF9FE80197CC
:100A8000F1F700C000000E94B30284E00E94C4029B
:100A900090E02091160230E02451304082179307F5
:100AA0002CF480E56AE30E94880242C084E00E9440
:100AB000C40290911602891728F480E566E40E942A
:100AC000880236C084E00E94C402893708F184E6B7
:100AD00064E60E9488020E9493028FEF9FEFA1E1DB
:100AE00081509040A040E1F700C0000082E36CE834
:100AF0000E94880284E00E94C4028135C8F00E94EE
:100B00009302AFEFBFE81197F1F700C00000F2CFFA
:100B100084E00E94C40290911602981728F48AE398
:100B200060E50E94880204C080E560E50E948802BA
:100B3000209709F09FCF83E00E94C40280930202B5
:100B400082E00E94C4028093010281E00E94C402FC
:100B50008093000290910102903108F464C090915A
:100B60000202903108F45FC0803108F45CC00E943A
:100B700093020E94B30284E00E94C40290E020919C
:100B8000160230E024513040821793072CF480E5A0
:100B90006AE30E94880252CF84E00E94C4029091CE
:100BA0001602891728F480E566E40E94880246CF81
:100BB00084E00E94C402893710F184E664E60E9452
:100BC00088020E9493028FEF9FEFA1E18150904035
:100BD000A040E1F700C0000082E36CE80E948802B8
:100BE00084E00E94C402813508F428CF0E94930259
:100BF000AFEFBFE81197F1F700C00000F1CF84E03C
:100C00000E94C40290911602981728F48AE360E5C6
:100C10000E94880213CF80E560E50E9488020ECF13
:100C20000E94EA030BCF81E090E0DF91CF9108951D
:100C30000E94EA038BE00E94C402809318020E9483
:100C4000F302909315028093140221E08D329207F3
:100C500020F481E090E00E94B60380910E02909112
:100C60000F028A3091053CF40E948F048130910577
:100C7000F9F60E9418068B3091053CF00E94F004B2
:100C800081309105A9F60E9418060E941A0581304C
:100C9000910571F60E9418060E9433030E941806FF
:100CA0000CD0EBC0E3D040F0DAD030F021F45F3F5D
:100CB00019F0CCC0511115C1CFC0F0D098F39923D1
:100CC000C9F35523B1F3951B550BBB27AA27621710
:100CD0007307840738F09F5F5F4F220F331F441F55
:100CE000AA1FA9F333D00E2E3AF0E0E830D091508D
:100CF0005040E695001CCAF729D0FE2F27D0660F7A
:100D0000771F881FBB1F261737074807AB07B0E8B8
:100D100009F0BB0B802DBF01FF2793585F4F2AF0CE
:100D20009E3F510568F092C0DCC05F3FECF3983EF7
:100D3000DCF3869577956795B795F7959F5FC9F72B
:100D4000880F911D9695879597F90895E1E0660FB4
:100D5000771F881FBB1F621773078407BA0720F02D
:100D6000621B730B840BBA0BEE1F88F7E095089596
:100D700004D06894B111B5C0089598D088F09F57F9
:100D800090F0B92F9927B751A0F0D1F0660F771FD7
:100D9000881F991F1AF0BA95C9F712C0B13081F0B7
:100DA0009FD0B1E008959CC0672F782F8827B85F47
:100DB00039F0B93FCCF3869577956795B395D9F718
:100DC0003EF490958095709561957F4F8F4F9F4F22
:100DD0000895E89409C097FB3EF49095809570952E
:100DE00061957F4F8F4F9F4F9923A9F0F92F96E977
:100DF000BB279395F695879577956795B795F111EC
:100E0000F8CFFAF4BB0F11F460FF1BC06F5F7F4F88
:100E10008F4F9F4F16C0882311F096E911C077239A
:100E200021F09EE8872F762F05C0662371F096E8A3
:100E3000862F70E060E02AF09A95660F771F881F72
:100E4000DAF7880F9695879597F9089597F99F6730
:100E500080E870E060E008959FEF80EC0895002442
:100E60000A941616170618060906089500240A940F
:100E700012161306140605060895092E0394000C95
:100E800011F4882352F0BB0F40F4BF2B11F460FF24
:100E900004C06F5F7F4F8F4F9F4F089557FD90584D
:100EA000440F551F59F05F3F71F04795880F97FB2E
:100EB000991F61F09F3F79F08795089512161306E8
:100EC0001406551FF2CF4695F1DF08C01616170617
:100ED0001806991FF1CF869571056105089408954C
:100EE000E894BB2766277727CB0197F908950BD0A5
:100EF000C4CFB5DF28F0BADF18F0952309F0A6CFEC
:100F0000ABCF1124EECFCADFA0F3959FD1F3950F9D
:100F100050E0551F629FF001729FBB27F00DB11D7D
:100F2000639FAA27F00DB11DAA1F649F6627B00D0D
:100F3000A11D661F829F2227B00DA11D621F739FF6
:100F4000B00DA11D621F839FA00D611D221F749F04
:100F50003327A00D611D231F849F600D211D822F4B
:100F6000762F6A2F11249F5750408AF0E1F0882392
:100F70004AF0EE0FFF1FBB1F661F771F881F91509F
:100F80005040A9F79E3F510570F060CFAACF5F3F58
:100F9000ECF3983EDCF3869577956795B795F795D2
:100FA000E7959F5FC1F7FE2B880F911D969587955A
:100FB00097F90895FA01EE0FFF1F309621053105CC
:100FC00099F16115710561F48038BFE39B0749F120
:100FD00068949038810561F08038BFEF9B0741F03D
:100FE000992342F5FF3FE1053105210511F1E89410
:100FF0000894E795D901AA2329F4AB2FBE2FF85FF7
:10100000D0F310C0FF5F70F4A695E0F7F73950F009
:1010100019F0FF3A38F49F779F930CD00F9007FC9C
:10102000905808953EF018CF60E070E080E89FE3AC
:1010300008954FE79F775F934F933F932F939ED0F1
:101040002F913F914F915F9152DF05C019F40EF03F
:10105000FDCE46CF01CF2ADFC8F39638C0F707F898
:101060000F92E8942BE33AEA48EB5FE74EDF0F92EA
:101070000F920F924DB75EB70F92C0D0E4EEF0E042
:1010800016D04F915F91EF91FF91E595EE1FFF1FF5
:1010900049F0FE57E0684427EE0F441FFA95E1F748
:1010A0004195550B32D00F9007FE26C00895DF936F
:1010B000CF931F930F93FF92EF92DF927B018C01EE
:1010C000689405C0DA2EEF011EDFFE01E894A591B9
:1010D0002591359145915591AEF3EF01D4D0FE01A4
:1010E0009701A801DA9479F7DF90EF90FF900F91C4
:1010F0001F91CF91DF9108959B01AC0160E070E0FA
:1011000080E89FE3CDCDA2CE11C1D0DEE8F39923D4
:10111000D9F3940F511DBBF39150504094F059F006
:10112000882332F0660F771F881F91505040C1F717
:101130009E3F510544F7880F911D9695879597F925
:1011400008955F3FACF0983E9CF0BB27869577955D
:101150006795B79508F4B1609395C1F7BB0F58F741
:1011600011F460FFE8CF6F5F7F4F8F4F9F4FE3CF4A
:10117000B8CE0EF0DBC070CE689468CE97DEC8F3B0
:101180009923D1F3C6F3DF93CF931F930F93FF926D
:10119000C92FDD2788232AF02197660F771F881F24
:1011A000DAF720E030E040E85FEB9FE3883920F099
:1011B000803E30F021968F7755D0ECE0F1E003C00F
:1011C00051D0E9E3F1E073DF8B01BE01EC01FB2EAE
:1011D0006F5771097595771F880B990BFCDD28E116
:1011E00032E741E35FE38FDEAF2D9801AE01FF9060
:1011F0000F911F91CF91DF9146D03FCEFA01DC01D4
:10120000AA0FBB1F9B01AC01BF5728F4222733272D
:10121000442750781FC0B75188F4AB2F002446955F
:1012200037952795011CA395D2F3002069F0220F72
:10123000331F441FB395DAF30DD013C0613071052D
:10124000A0E88A07B94630F49B01AC0166277727EE
:1012500088279078309621F020833183428353830E
:1012600008955058BB27AA270ED007CEF8DD30F0DE
:10127000FDDD20F031F49F3F11F41EF4EDCD0EF4AE
:10128000E095E7FBE3CDE92F09DE80F3BA176207AB
:1012900073078407950718F071F49EF521CE0EF4BC
:1012A000E0950B2EBA2FA02D0B01B90190010C0176
:1012B000CA01A0011124FF27591B99F0593F50F48E
:1012C000503E68F11A16F040A22F232F342F4427E6
:1012D000585FF3CF469537952795A795F0405395DE
:1012E000C9F77EF41F16BA0B620B730B840BBAF0AE
:1012F0009150A1F0FF0FBB1F661F771F881FC2F719
:101300000EC0BA0F621F731F841F48F4879577952C
:101310006795B795F7959E3F08F0B3CF9395880FE3
:1013200008F09927EE0F9795879508959F3F31F024
:10133000915020F4879577956795B795880F911D03
:101340009695879597F90895AA1BBB1B51E107C095
:10135000AA1FBB1FA617B70710F0A61BB70B881F45
:10136000991F5A95A9F780959095BC01CD010895D4
:04137000F894FFCF1F
:00000001FF
